{
  "contractName": "MemesHandler",
  "abi": [
    {
      "constant": true,
      "inputs": [
        {
          "name": "",
          "type": "uint256"
        }
      ],
      "name": "memesList",
      "outputs": [
        {
          "name": "",
          "type": "address"
        }
      ],
      "payable": false,
      "stateMutability": "view",
      "type": "function"
    },
    {
      "constant": true,
      "inputs": [
        {
          "name": "",
          "type": "address"
        }
      ],
      "name": "memeStructs",
      "outputs": [
        {
          "name": "ipfsHash",
          "type": "string"
        },
        {
          "name": "votes",
          "type": "uint256"
        },
        {
          "name": "isMeme",
          "type": "bool"
        }
      ],
      "payable": false,
      "stateMutability": "view",
      "type": "function"
    },
    {
      "inputs": [],
      "payable": false,
      "stateMutability": "nonpayable",
      "type": "constructor"
    },
    {
      "constant": true,
      "inputs": [
        {
          "name": "_memeAddress",
          "type": "address"
        }
      ],
      "name": "isMeme",
      "outputs": [
        {
          "name": "isIndeed",
          "type": "bool"
        }
      ],
      "payable": false,
      "stateMutability": "view",
      "type": "function"
    },
    {
      "constant": true,
      "inputs": [],
      "name": "getMemesCount",
      "outputs": [
        {
          "name": "memesCount",
          "type": "uint256"
        }
      ],
      "payable": false,
      "stateMutability": "view",
      "type": "function"
    },
    {
      "constant": true,
      "inputs": [],
      "name": "getMemesList",
      "outputs": [
        {
          "name": "memes",
          "type": "address[]"
        }
      ],
      "payable": false,
      "stateMutability": "view",
      "type": "function"
    },
    {
      "constant": false,
      "inputs": [
        {
          "name": "_ipfsHash",
          "type": "string"
        }
      ],
      "name": "newMeme",
      "outputs": [
        {
          "name": "rowNumber",
          "type": "uint256"
        }
      ],
      "payable": false,
      "stateMutability": "nonpayable",
      "type": "function"
    },
    {
      "constant": true,
      "inputs": [
        {
          "name": "_index",
          "type": "uint256"
        }
      ],
      "name": "getMemeByIndex",
      "outputs": [
        {
          "name": "ipfsHash",
          "type": "string"
        }
      ],
      "payable": false,
      "stateMutability": "view",
      "type": "function"
    },
    {
      "constant": false,
      "inputs": [
        {
          "name": "_memeAddress",
          "type": "address"
        },
        {
          "name": "_ipfsHash",
          "type": "string"
        }
      ],
      "name": "updateMeme",
      "outputs": [
        {
          "name": "success",
          "type": "bool"
        }
      ],
      "payable": false,
      "stateMutability": "nonpayable",
      "type": "function"
    },
    {
      "constant": true,
      "inputs": [
        {
          "name": "_memeAddress",
          "type": "address"
        }
      ],
      "name": "getMemeByAddress",
      "outputs": [
        {
          "name": "ipfsHash",
          "type": "string"
        }
      ],
      "payable": false,
      "stateMutability": "view",
      "type": "function"
    },
    {
      "constant": false,
      "inputs": [
        {
          "name": "_memeAddress",
          "type": "address"
        }
      ],
      "name": "addVote",
      "outputs": [
        {
          "name": "success",
          "type": "bool"
        }
      ],
      "payable": false,
      "stateMutability": "nonpayable",
      "type": "function"
    },
    {
      "constant": true,
      "inputs": [
        {
          "name": "_memeAddress",
          "type": "address"
        }
      ],
      "name": "getVotes",
      "outputs": [
        {
          "name": "votes",
          "type": "uint256"
        }
      ],
      "payable": false,
      "stateMutability": "view",
      "type": "function"
    }
  ],
  "bytecode": "0x60806040523480156200001157600080fd5b50606060405190810160405280602e81526020017f516d57455268444831504c68594165524c515138436339796b6d69385855767381526020017f42654558675a637751336641754c00000000000000000000000000000000000081525060008073bce3fe1c153036288dd4745235f03d19cb35760273ffffffffffffffffffffffffffffffffffffffff1673ffffffffffffffffffffffffffffffffffffffff1681526020019081526020016000206000019080519060200190620000d992919062000639565b50600560008073bce3fe1c153036288dd4745235f03d19cb35760273ffffffffffffffffffffffffffffffffffffffff1673ffffffffffffffffffffffffffffffffffffffff16815260200190815260200160002060010181905550600160008073bce3fe1c153036288dd4745235f03d19cb35760273ffffffffffffffffffffffffffffffffffffffff1673ffffffffffffffffffffffffffffffffffffffff16815260200190815260200160002060020160006101000a81548160ff021916908315150217905550600173bce3fe1c153036288dd4745235f03d19cb35760290806001815401808255809150509060018203906000526020600020016000909192909190916101000a81548173ffffffffffffffffffffffffffffffffffffffff021916908373ffffffffffffffffffffffffffffffffffffffff16021790555050606060405190810160405280602e81526020017f516d4e5032787a34506b50585a776155797a433974794464546a45704554314481526020017f337657314364774e51647954644d000000000000000000000000000000000000815250600080731905c992cc392484d87c99156da3f27e50f26a4b73ffffffffffffffffffffffffffffffffffffffff1673ffffffffffffffffffffffffffffffffffffffff1681526020019081526020016000206000019080519060200190620002e492919062000639565b506000806000731905c992cc392484d87c99156da3f27e50f26a4b73ffffffffffffffffffffffffffffffffffffffff1673ffffffffffffffffffffffffffffffffffffffff168152602001908152602001600020600101819055506001600080731905c992cc392484d87c99156da3f27e50f26a4b73ffffffffffffffffffffffffffffffffffffffff1673ffffffffffffffffffffffffffffffffffffffff16815260200190815260200160002060020160006101000a81548160ff0219169083151502179055506001731905c992cc392484d87c99156da3f27e50f26a4b90806001815401808255809150509060018203906000526020600020016000909192909190916101000a81548173ffffffffffffffffffffffffffffffffffffffff021916908373ffffffffffffffffffffffffffffffffffffffff16021790555050606060405190810160405280602e81526020017f516d594861615748677054326942474e784d43434670444b67736b656a36626881526020017f75626435636e797455754a4b5270000000000000000000000000000000000000815250600080731318860e9ddbaed4a3ffa3d38a689737f1a1b9af73ffffffffffffffffffffffffffffffffffffffff1673ffffffffffffffffffffffffffffffffffffffff1681526020019081526020016000206000019080519060200190620004ef92919062000639565b50600a600080731318860e9ddbaed4a3ffa3d38a689737f1a1b9af73ffffffffffffffffffffffffffffffffffffffff1673ffffffffffffffffffffffffffffffffffffffff168152602001908152602001600020600101819055506001600080731318860e9ddbaed4a3ffa3d38a689737f1a1b9af73ffffffffffffffffffffffffffffffffffffffff1673ffffffffffffffffffffffffffffffffffffffff16815260200190815260200160002060020160006101000a81548160ff0219169083151502179055506001731318860e9ddbaed4a3ffa3d38a689737f1a1b9af90806001815401808255809150509060018203906000526020600020016000909192909190916101000a81548173ffffffffffffffffffffffffffffffffffffffff021916908373ffffffffffffffffffffffffffffffffffffffff16021790555050620006e8565b828054600181600116156101000203166002900490600052602060002090601f016020900481019282601f106200067c57805160ff1916838001178555620006ad565b82800160010185558215620006ad579182015b82811115620006ac5782518255916020019190600101906200068f565b5b509050620006bc9190620006c0565b5090565b620006e591905b80821115620006e1576000816000905550600101620006c7565b5090565b90565b610f2880620006f86000396000f3fe6080604052600436106100af576000357c0100000000000000000000000000000000000000000000000000000000900463ffffffff16806329cfb72e146100b45780635b98142d146101205780636cea0e46146101895780637b8ee30e146101f2578063934359fd146102f25780639ab24eb01461036d5780639fb87c42146103d2578063df3c20d4146104ae578063e5f6e26114610562578063ec80cf701461058d578063ed3a4cb114610669575b600080fd5b3480156100c057600080fd5b506100c9610733565b6040518080602001828103825283818151815260200191508051906020019060200280838360005b8381101561010c5780820151818401526020810190506100f1565b505050509050019250505060405180910390f35b34801561012c57600080fd5b5061016f6004803603602081101561014357600080fd5b81019080803573ffffffffffffffffffffffffffffffffffffffff1690602001909291905050506107c1565b604051808215151515815260200191505060405180910390f35b34801561019557600080fd5b506101d8600480360360208110156101ac57600080fd5b81019080803573ffffffffffffffffffffffffffffffffffffffff169060200190929190505050610819565b604051808215151515815260200191505060405180910390f35b3480156101fe57600080fd5b506102d86004803603604081101561021557600080fd5b81019080803573ffffffffffffffffffffffffffffffffffffffff1690602001909291908035906020019064010000000081111561025257600080fd5b82018360208201111561026457600080fd5b8035906020019184600183028401116401000000008311171561028657600080fd5b91908080601f016020809104026020016040519081016040528093929190818152602001838380828437600081840152601f19601f820116905080830192505050505050509192919290505050610889565b604051808215151515815260200191505060405180910390f35b3480156102fe57600080fd5b5061032b6004803603602081101561031557600080fd5b81019080803590602001909291905050506108ff565b604051808273ffffffffffffffffffffffffffffffffffffffff1673ffffffffffffffffffffffffffffffffffffffff16815260200191505060405180910390f35b34801561037957600080fd5b506103bc6004803603602081101561039057600080fd5b81019080803573ffffffffffffffffffffffffffffffffffffffff16906020019092919050505061093d565b6040518082815260200191505060405180910390f35b3480156103de57600080fd5b50610421600480360360208110156103f557600080fd5b81019080803573ffffffffffffffffffffffffffffffffffffffff16906020019092919050505061099c565b604051808060200184815260200183151515158152602001828103825285818151815260200191508051906020019080838360005b83811015610471578082015181840152602081019050610456565b50505050905090810190601f16801561049e5780820380516001836020036101000a031916815260200191505b5094505050505060405180910390f35b3480156104ba57600080fd5b506104e7600480360360208110156104d157600080fd5b8101908080359060200190929190505050610a6b565b6040518080602001828103825283818151815260200191508051906020019080838360005b8381101561052757808201518184015260208101905061050c565b50505050905090810190601f1680156105545780820380516001836020036101000a031916815260200191505b509250505060405180910390f35b34801561056e57600080fd5b50610577610bd4565b6040518082815260200191505060405180910390f35b34801561059957600080fd5b50610653600480360360208110156105b057600080fd5b81019080803590602001906401000000008111156105cd57600080fd5b8201836020820111156105df57600080fd5b8035906020019184600183028401116401000000008311171561060157600080fd5b91908080601f016020809104026020016040519081016040528093929190818152602001838380828437600081840152601f19601f820116905080830192505050505050509192919290505050610be1565b6040518082815260200191505060405180910390f35b34801561067557600080fd5b506106b86004803603602081101561068c57600080fd5b81019080803573ffffffffffffffffffffffffffffffffffffffff169060200190929190505050610d60565b6040518080602001828103825283818151815260200191508051906020019080838360005b838110156106f85780820151818401526020810190506106dd565b50505050905090810190601f1680156107255780820380516001836020036101000a031916815260200191505b509250505060405180910390f35b606060018054806020026020016040519081016040528092919081815260200182805480156107b757602002820191906000526020600020905b8160009054906101000a900473ffffffffffffffffffffffffffffffffffffffff1673ffffffffffffffffffffffffffffffffffffffff168152602001906001019080831161076d575b5050505050905090565b60008060008373ffffffffffffffffffffffffffffffffffffffff1673ffffffffffffffffffffffffffffffffffffffff16815260200190815260200160002060020160009054906101000a900460ff169050919050565b6000610824826107c1565b151561082f57600080fd5b6000808373ffffffffffffffffffffffffffffffffffffffff1673ffffffffffffffffffffffffffffffffffffffff1681526020019081526020016000206001016000815480929190600101919050555060019050919050565b6000610894836107c1565b151561089f57600080fd5b816000808573ffffffffffffffffffffffffffffffffffffffff1673ffffffffffffffffffffffffffffffffffffffff16815260200190815260200160002060000190805190602001906108f4929190610e57565b506001905092915050565b60018181548110151561090e57fe5b906000526020600020016000915054906101000a900473ffffffffffffffffffffffffffffffffffffffff1681565b6000610948826107c1565b151561095357600080fd5b6000808373ffffffffffffffffffffffffffffffffffffffff1673ffffffffffffffffffffffffffffffffffffffff168152602001908152602001600020600101549050919050565b6000602052806000526040600020600091509050806000018054600181600116156101000203166002900480601f016020809104026020016040519081016040528092919081815260200182805460018160011615610100020316600290048015610a485780601f10610a1d57610100808354040283529160200191610a48565b820191906000526020600020905b815481529060010190602001808311610a2b57829003601f168201915b5050505050908060010154908060020160009054906101000a900460ff16905083565b6060610aaf600183815481101515610a7f57fe5b9060005260206000200160009054906101000a900473ffffffffffffffffffffffffffffffffffffffff166107c1565b1515610aba57600080fd5b600080600184815481101515610acc57fe5b9060005260206000200160009054906101000a900473ffffffffffffffffffffffffffffffffffffffff1673ffffffffffffffffffffffffffffffffffffffff1673ffffffffffffffffffffffffffffffffffffffff1681526020019081526020016000206000018054600181600116156101000203166002900480601f016020809104026020016040519081016040528092919081815260200182805460018160011615610100020316600290048015610bc85780601f10610b9d57610100808354040283529160200191610bc8565b820191906000526020600020905b815481529060010190602001808311610bab57829003601f168201915b50505050509050919050565b6000600180549050905090565b600080339050610bf0816107c1565b15610bfa57600080fd5b826000808373ffffffffffffffffffffffffffffffffffffffff1673ffffffffffffffffffffffffffffffffffffffff1681526020019081526020016000206000019080519060200190610c4f929190610e57565b5060008060008373ffffffffffffffffffffffffffffffffffffffff1673ffffffffffffffffffffffffffffffffffffffff1681526020019081526020016000206001018190555060016000808373ffffffffffffffffffffffffffffffffffffffff1673ffffffffffffffffffffffffffffffffffffffff16815260200190815260200160002060020160006101000a81548160ff0219169083151502179055506001808290806001815401808255809150509060018203906000526020600020016000909192909190916101000a81548173ffffffffffffffffffffffffffffffffffffffff021916908373ffffffffffffffffffffffffffffffffffffffff16021790555003915050919050565b6060610d6b826107c1565b1515610d7657600080fd5b6000808373ffffffffffffffffffffffffffffffffffffffff1673ffffffffffffffffffffffffffffffffffffffff1681526020019081526020016000206000018054600181600116156101000203166002900480601f016020809104026020016040519081016040528092919081815260200182805460018160011615610100020316600290048015610e4b5780601f10610e2057610100808354040283529160200191610e4b565b820191906000526020600020905b815481529060010190602001808311610e2e57829003601f168201915b50505050509050919050565b828054600181600116156101000203166002900490600052602060002090601f016020900481019282601f10610e9857805160ff1916838001178555610ec6565b82800160010185558215610ec6579182015b82811115610ec5578251825591602001919060010190610eaa565b5b509050610ed39190610ed7565b5090565b610ef991905b80821115610ef5576000816000905550600101610edd565b5090565b9056fea165627a7a723058204d51e539bda064ff1fc2a344ad5c28ab59cf5820332d50b569050c74f6f9ab1b0029",
  "source": "pragma solidity 0.5.0;\r\n\r\ncontract MemesHandler {\r\n\r\n  struct MemeStruct {\r\n    string ipfsHash;\r\n    uint votes;\r\n    bool isMeme;\r\n  }\r\n\r\n  mapping(address => MemeStruct) public memeStructs;\r\n  address[] public memesList;\r\n\r\n  constructor() public {\r\n    memeStructs[0xBCe3fe1C153036288Dd4745235F03d19cb357602].ipfsHash = 'QmWERhDH1PLhYAeRLQQ8Cc9ykmi8XUvsBeEXgZcwQ3fAuL';\r\n    memeStructs[0xBCe3fe1C153036288Dd4745235F03d19cb357602].votes = 5;\r\n    memeStructs[0xBCe3fe1C153036288Dd4745235F03d19cb357602].isMeme = true;\r\n    memesList.push(0xBCe3fe1C153036288Dd4745235F03d19cb357602);\r\n    memeStructs[0x1905C992cC392484D87c99156Da3F27e50F26A4b].ipfsHash = 'QmNP2xz4PkPXZwaUyzC9tyDdTjEpET1D3vW1CdwNQdyTdM';\r\n    memeStructs[0x1905C992cC392484D87c99156Da3F27e50F26A4b].votes = 0;\r\n    memeStructs[0x1905C992cC392484D87c99156Da3F27e50F26A4b].isMeme = true;\r\n    memesList.push(0x1905C992cC392484D87c99156Da3F27e50F26A4b);\r\n    memeStructs[0x1318860E9DdBaed4A3ffa3D38a689737F1a1B9Af].ipfsHash = 'QmYHaaWHgpT2iBGNxMCCFpDKgskej6bhubd5cnytUuJKRp';\r\n    memeStructs[0x1318860E9DdBaed4A3ffa3D38a689737F1a1B9Af].votes = 10;\r\n    memeStructs[0x1318860E9DdBaed4A3ffa3D38a689737F1a1B9Af].isMeme = true;\r\n    memesList.push(0x1318860E9DdBaed4A3ffa3D38a689737F1a1B9Af);\r\n  }\r\n\r\n  function isMeme(address _memeAddress) public view returns(bool isIndeed) {\r\n      return memeStructs[_memeAddress].isMeme;\r\n  }\r\n\r\n  function getMemesCount() public view returns(uint memesCount) {\r\n    return memesList.length;\r\n  }\r\n\r\n  function getMemesList() public view returns(address[] memory memes) {\r\n    return memesList;\r\n  }\r\n\r\n  function newMeme(string memory _ipfsHash) public returns(uint rowNumber) {\r\n    address creator = msg.sender;\r\n    if(isMeme(creator)) revert();\r\n    memeStructs[creator].ipfsHash = _ipfsHash;\r\n    memeStructs[creator].votes = 0;\r\n    memeStructs[creator].isMeme = true;\r\n    return memesList.push(creator) - 1;\r\n  }\r\n\r\n  function getMemeByIndex(uint _index) public view returns(string memory ipfsHash) {\r\n    if(!isMeme(memesList[_index])) revert();\r\n    return memeStructs[memesList[_index]].ipfsHash;\r\n  }\r\n\r\n  function updateMeme(address _memeAddress, string memory _ipfsHash) public returns(bool success) {\r\n    if(!isMeme(_memeAddress)) revert();\r\n    memeStructs[_memeAddress].ipfsHash = _ipfsHash;\r\n    return true;\r\n  }\r\n\r\n  function getMemeByAddress(address _memeAddress) public view returns(string memory ipfsHash) {\r\n    if(!isMeme(_memeAddress)) revert();\r\n    return memeStructs[_memeAddress].ipfsHash;\r\n  }\r\n\r\n  function addVote(address _memeAddress) public returns(bool success) {\r\n    if(!isMeme(_memeAddress)) revert();\r\n    memeStructs[_memeAddress].votes++;\r\n    return true;\r\n  }\r\n\r\n  function getVotes(address _memeAddress) public view returns(uint votes) {\r\n    if(!isMeme(_memeAddress)) revert();\r\n    return memeStructs[_memeAddress].votes;\r\n  }\r\n}\r\n",
  "sourcePath": "/home/sylar217/meme-of-the-day/src/contracts/MemesHandler.sol",
  "compiler": {
    "name": "solc",
    "version": "0.5.0+commit.1d4f565a.Emscripten.clang"
  },
  "schemaVersion": "3.2.5",
  "updatedAt": "2020-09-26T09:52:41.829Z",
  "networkType": "ethereum",
  "devdoc": {
    "methods": {}
  },
  "userdoc": {
    "methods": {}
  }
}